:100000000C942F000C9400000C9400000C94000041
:100010000C9400000C9400000C9400000C94000060
:100020000C9400000C9400000C9400000C94000050
:100030000C9400000C9400000C9400000C94000040
:100040000C9400000C9400000C9400000C94000030
:040050000C9400000C
:10005E00BFE5BDBFB8E0BEBF0AB30F600ABB04B3B5
:10006E000F6F04BBB8E0BBBBB6E0B5BB1DE00CEF39
:10007E000A95F1F71A95E1F70000B4E0BBBBBBE5BA
:10008E00B5BB1DE00CEF0A95F1F71A95E1F70000EC
:10009E00B2E0BBBBBFE4B5BB1DE00CEF0A95F1F7B8
:1000AE001A95E1F70000B1E0BBBBB6E6B5BB1DE0AB
:1000BE000CEF0A95F1F71A95E1F70000D3CFFFCFB9
:0000CE0032
:0A00540005900D920197E1F7089561
:00000001FF
